:020000040000FA
:04000000FEEFFFF020
:020000040001F9
:10FF0400000185EFFFF097ECFFF087EFFFF0FEEFC5
:10FF1400FFF00201AB8FAB9BAB99F00EAB17AC9F1C
:10FF2400060EAF6F840EAE6F1200C79004010891E5
:10FF3400C798190E0201096F200E0D6FBDECFFF07A
:10FF4400D7ECFFF0A9ECFFF08BECFFF01200D69E8B
:10FF5400D69CD68AD684D682D680040159815991FA
:10FF64005981030176919E8E04010E810301629FE3
:10FF7400D68ED68C12000001AC9FAC9DAC97AC938E
:10FF8400AD518F0B6009AD6FF00EAD17AF9FAF9DF4
:10FF9400C00EB017B151F00B0809B16FB39FB39DF8
:10FFA400B39BB399B397B3951200000E606E030E22
:10FFB400616E000E626E000E646E7F0E636E000E44
:10FFC400656E000E666E6792679068926890699E8F
:10FFD4006994699269906A9E6A9C6A96F80E6A1698
:10FFE400000E6C6E400E6B6E000E6E6E400E6D6EEB
:0CFFF4009C909D90698E120082EFFFF03F
:020000040020DA
:10000000FF0FFF0FFF0FFF0FFF0FFF0FFF0FFF0F80
:10001000FF0FFF0FFF0FFF0FFF0FFF0FFF0FFF0F70
:020000040030CA
:0A0000008CFFFFFF9FFFFFFFFFFFD3
:00000001FF
